:020000020000FC
:1000000022C00F931F932F933F934F93002D1BB349
:100010001F7722271BBB203280F4332744274395C8
:100020004838E9F733953431D1F71F7700FD106870
:10003000069500681BBB2395EECF4F913F912F9102
:100040001F910F910895D79A00E806B91ED002D0EB
:100050002AD0FCCF0F93002D029409D0D2DF002EBE
:1000600006D0CFDF00E2002ECCDF0F9108950F9372
:100070001F93002D0F7010E3010F0A3310F017E0EB
:10008000010F002E1F910F9108950F9307EC06B9F1
:1000900000E103B901E011B906B10074E9F705B157
:1000A000002E0F9108950F931F932F930027112770
:1000B00020EC0395F1F71395E1F72395D1F72F91F4
:1000C0001F910F9108950000000000000000000043
:1000D0000000000000000000000000000000000020
:1000E0000000000000000000000000000000000010
:1000F0000000000000000000000000000000000000
:1001000000000000000000000000000000000000EF
:00000001FF
